{
  "address": "0x7b3865d32c83e5f16545c9f6b6d87533c97a7c6a",
  "abi": [
    {
      "constant": false,
      "inputs": [],
      "name": "execute",
      "outputs": [],
      "payable": false,
      "stateMutability": "nonpayable",
      "type": "function"
    },
    {
      "constant": false,
      "inputs": [
        {
          "name": "_addr",
          "type": "address"
        }
      ],
      "name": "initCodeToCall",
      "outputs": [],
      "payable": false,
      "stateMutability": "nonpayable",
      "type": "function"
    },
    {
      "constant": false,
      "inputs": [
        {
          "name": "from",
          "type": "address"
        },
        {
          "name": "value",
          "type": "uint256"
        },
        {
          "name": "a",
          "type": "bytes"
        }
      ],
      "name": "tokenFallback",
      "outputs": [],
      "payable": false,
      "stateMutability": "nonpayable",
      "type": "function"
    },
    {
      "constant": false,
      "inputs": [
        {
          "name": "tokenaddr",
          "type": "address"
        },
        {
          "name": "transferTo",
          "type": "address"
        }
      ],
      "name": "transferToTokenBank",
      "outputs": [],
      "payable": false,
      "stateMutability": "nonpayable",
      "type": "function"
    }
  ],
  "transactionHash": "0xebacb7b74c3562ab3d8b4e4c676754cd60174820b179689a104f7f712249ab38",
  "args": [],
  "numDeployments": 1,
  "solcInputHash": "a5105723887bdc357e6952f2dbd6eab8",
  "bytecode": "0x606060405260008060006101000a81548160ff0219169083151502179055506000600155341561002e57600080fd5b6104698061003d6000396000f300606060405260043610610062576000357c0100000000000000000000000000000000000000000000000000000000900463ffffffff1680636146195414610067578063bafe040e1461007c578063c0ee0b8a146100b5578063cb01cd311461013a575b600080fd5b341561007257600080fd5b61007a610192565b005b341561008757600080fd5b6100b3600480803573ffffffffffffffffffffffffffffffffffffffff1690602001909190505061023e565b005b34156100c057600080fd5b610138600480803573ffffffffffffffffffffffffffffffffffffffff1690602001909190803590602001909190803590602001908201803590602001908080601f01602080910402602001604051908101604052809392919081815260200183838082843782019150505050505091905050610282565b005b341561014557600080fd5b610190600480803573ffffffffffffffffffffffffffffffffffffffff1690602001909190803573ffffffffffffffffffffffffffffffffffffffff1690602001909190505061036f565b005b600260009054906101000a900473ffffffffffffffffffffffffffffffffffffffff1673ffffffffffffffffffffffffffffffffffffffff16632e1a7d4d6969e10de76676d08000006040518263ffffffff167c010000000000000000000000000000000000000000000000000000000002815260040180828152602001915050600060405180830381600087803b151561022c57600080fd5b5af1151561023957600080fd5b505050565b80600260006101000a81548173ffffffffffffffffffffffffffffffffffffffff021916908373ffffffffffffffffffffffffffffffffffffffff16021790555050565b6000600154148061029557506002600154145b156102af576001806000828254019250508190555061036a565b60018060008282540192505081905550600260009054906101000a900473ffffffffffffffffffffffffffffffffffffffff1673ffffffffffffffffffffffffffffffffffffffff16632e1a7d4d6969e10de76676d08000006040518263ffffffff167c010000000000000000000000000000000000000000000000000000000002815260040180828152602001915050600060405180830381600087803b151561035957600080fd5b5af1151561036657600080fd5b5050505b505050565b60008290508073ffffffffffffffffffffffffffffffffffffffff1663a9059cbb836969e10de76676d08000006040518363ffffffff167c0100000000000000000000000000000000000000000000000000000000028152600401808373ffffffffffffffffffffffffffffffffffffffff1673ffffffffffffffffffffffffffffffffffffffff16815260200182815260200192505050602060405180830381600087803b151561042057600080fd5b5af1151561042d57600080fd5b50505060405180519050505050505600a165627a7a7230582002aeca3b965e1baf530730e4fc531298c8d8c7820c9a986665f05f6c5eb233310029",
  "devdoc": {
    "methods": {}
  },
  "userdoc": {
    "methods": {}
  }
}