{
    "contractName": "FuzzyId_Deployer",
    "abi": [
        {
            "constant": false,
            "inputs": [
                {
                    "name": "salt",
                    "type": "bytes32"
                }
            ],
            "name": "deploy",
            "outputs": [],
            "payable": false,
            "stateMutability": "nonpayable",
            "type": "function"
        }
    ],
    "bytecode": "61022060405261017d60808181529061022760a03980516100289160009160209091019061003b565b5034801561003557600080fd5b506100d6565b828054600181600116156101000203166002900490600052602060002090601f016020900481019282601f1061007c57805160ff19168380011785556100a9565b828001600101855582156100a9579182015b828111156100a957825182559160200191906001019061008e565b506100b59291506100b9565b5090565b6100d391905b808211156100b557600081556001016100bf565b90565b610142806100e56000396000f3fe6080604052600436106100405763ffffffff7c01000000000000000000000000000000000000000000000000000000006000350416632b85ba388114610045575b600080fd5b34801561005157600080fd5b5061006f6004803603602081101561006857600080fd5b5035610071565b005b60008054604080516020601f60026000196101006001881615020190951694909404938401819004810282018101909252828152606093909290918301828280156100fd5780601f106100d2576101008083540402835291602001916100fd565b820191906000526020600020905b8154815290600101906020018083116100e057829003601f168201915b505050505090506000828251602084016000f55050505056fea165627a7a7230582041c6f4f137209a63adc2f2dd780cb86b457154b1e5d9e29b21fa6d631b9146270029608060405234801561001057600080fd5b5061015d806100206000396000f3fe608060405234801561001057600080fd5b50600436106100365760003560e01c806306fdde031461003b5780637872ab4914610059575b600080fd5b61004361009d565b6040518082815260200191505060405180910390f35b61009b6004803603602081101561006f57600080fd5b81019080803573ffffffffffffffffffffffffffffffffffffffff1690602001909291905050506100c5565b005b60007f736d617278000000000000000000000000000000000000000000000000000000905090565b8073ffffffffffffffffffffffffffffffffffffffff1663380c7a676040518163ffffffff1660e01b8152600401600060405180830381600087803b15801561010d57600080fd5b505af1158015610121573d6000803e3d6000fd5b505050505056fea265627a7a72315820fb2fc7a07f0eebf799c680bb1526641d2d905c19393adf340a04e48c9b527de964736f6c634300050c0032",
    "sourcePath": "/Users/michaeldaly/github_projects/babys_first_repo/contracts/FuzzyId_deployer.sol",
    "compiler": {
        "name": "solc",
        "version": "0.5.0+commit.1d4f565a"
    },
    "functionHashes": {
        "deploy(bytes32)": "2b85ba38"
    },
    "gasEstimates": {
        "creation": {
            "codeDepositCost": "64400",
            "executionCost": "infinite",
            "totalCost": "infinite"
        },
        "external": {
            "deploy(bytes32)": "infinite"
        }
    }
}