{
  "address": "0x9fE46736679d2D9a65F0992F2272dE9f3c7fa6e0",
  "abi": [
    {
      "inputs": [],
      "stateMutability": "nonpayable",
      "type": "constructor"
    },
    {
      "inputs": [
        {
          "internalType": "address",
          "name": "account",
          "type": "address"
        }
      ],
      "name": "balanceOf",
      "outputs": [
        {
          "internalType": "uint256",
          "name": "",
          "type": "uint256"
        }
      ],
      "stateMutability": "view",
      "type": "function"
    },
    {
      "inputs": [
        {
          "internalType": "address",
          "name": "account",
          "type": "address"
        },
        {
          "internalType": "uint256",
          "name": "amount",
          "type": "uint256"
        }
      ],
      "name": "faucet",
      "outputs": [],
      "stateMutability": "nonpayable",
      "type": "function"
    },
    {
      "inputs": [],
      "name": "name",
      "outputs": [
        {
          "internalType": "string",
          "name": "",
          "type": "string"
        }
      ],
      "stateMutability": "view",
      "type": "function"
    },
    {
      "inputs": [],
      "name": "owner",
      "outputs": [
        {
          "internalType": "address",
          "name": "",
          "type": "address"
        }
      ],
      "stateMutability": "view",
      "type": "function"
    },
    {
      "inputs": [],
      "name": "symbol",
      "outputs": [
        {
          "internalType": "string",
          "name": "",
          "type": "string"
        }
      ],
      "stateMutability": "view",
      "type": "function"
    },
    {
      "inputs": [],
      "name": "totalSupply",
      "outputs": [
        {
          "internalType": "uint256",
          "name": "",
          "type": "uint256"
        }
      ],
      "stateMutability": "view",
      "type": "function"
    },
    {
      "inputs": [
        {
          "internalType": "address",
          "name": "to",
          "type": "address"
        },
        {
          "internalType": "uint256",
          "name": "amount",
          "type": "uint256"
        }
      ],
      "name": "transfer",
      "outputs": [],
      "stateMutability": "nonpayable",
      "type": "function"
    }
  ],
  "transactionHash": "0x3961320fd18468b559dd32dfb7c95982f8cd8c9a3314eba7504f76b323853f35",
  "args": [],
  "numDeployments": 1,
  "solcInputHash": "6ca0d234fe1f939f7d3a41cec130a50f",
  "bytecode": "0x60806040526040518060400160405280601181526020017f326e645f4861726468617420546f6b656e000000000000000000000000000000815250600090805190602001906200005192919062000150565b506040518060400160405280600381526020017f5448320000000000000000000000000000000000000000000000000000000000815250600190805190602001906200009f92919062000150565b50620f4240600255348015620000b457600080fd5b50600a600254620000c6919062000200565b600460003373ffffffffffffffffffffffffffffffffffffffff1673ffffffffffffffffffffffffffffffffffffffff1681526020019081526020016000208190555033600360006101000a81548173ffffffffffffffffffffffffffffffffffffffff021916908373ffffffffffffffffffffffffffffffffffffffff160217905550620002d6565b8280546200015e9062000242565b90600052602060002090601f016020900481019282620001825760008555620001ce565b82601f106200019d57805160ff1916838001178555620001ce565b82800160010185558215620001ce579182015b82811115620001cd578251825591602001919060010190620001b0565b5b509050620001dd9190620001e1565b5090565b5b80821115620001fc576000816000905550600101620001e2565b5090565b60006200020d8262000238565b91506200021a8362000238565b9250826200022d576200022c62000278565b5b828204905092915050565b6000819050919050565b600060028204905060018216806200025b57607f821691505b60208210811415620002725762000271620002a7565b5b50919050565b7f4e487b7100000000000000000000000000000000000000000000000000000000600052601260045260246000fd5b7f4e487b7100000000000000000000000000000000000000000000000000000000600052602260045260246000fd5b610b4980620002e66000396000f3fe608060405234801561001057600080fd5b506004361061007d5760003560e01c80637b56c2b21161005b5780637b56c2b2146100ee5780638da5cb5b1461010a57806395d89b4114610128578063a9059cbb146101465761007d565b806306fdde031461008257806318160ddd146100a057806370a08231146100be575b600080fd5b61008a610162565b60405161009791906107db565b60405180910390f35b6100a86101f0565b6040516100b5919061088b565b60405180910390f35b6100d860048036038101906100d391906106e1565b6101f6565b6040516100e5919061088b565b60405180910390f35b6101086004803603810190610103919061070a565b61023f565b005b6101126102af565b60405161011f91906107c0565b60405180910390f35b6101306102d5565b60405161013d91906107db565b60405180910390f35b610160600480360381019061015b919061070a565b610363565b005b6000805461016f906109ec565b80601f016020809104026020016040519081016040528092919081815260200182805461019b906109ec565b80156101e85780601f106101bd576101008083540402835291602001916101e8565b820191906000526020600020905b8154815290600101906020018083116101cb57829003601f168201915b505050505081565b60025481565b6000600460008373ffffffffffffffffffffffffffffffffffffffff1673ffffffffffffffffffffffffffffffffffffffff168152602001908152602001600020549050919050565b4781111561024c57600080fd5b600a60025461025b9190610918565b81111561026757600080fd5b80600460008473ffffffffffffffffffffffffffffffffffffffff1673ffffffffffffffffffffffffffffffffffffffff168152602001908152602001600020819055505050565b600360009054906101000a900473ffffffffffffffffffffffffffffffffffffffff1681565b600180546102e2906109ec565b80601f016020809104026020016040519081016040528092919081815260200182805461030e906109ec565b801561035b5780601f106103305761010080835404028352916020019161035b565b820191906000526020600020905b81548152906001019060200180831161033e57829003601f168201915b505050505081565b6103e16040518060400160405280601b81526020017f53656e6465722062616c616e636520697320257320746f6b656e730000000000815250600460003373ffffffffffffffffffffffffffffffffffffffff1673ffffffffffffffffffffffffffffffffffffffff16815260200190815260200160002054610553565b6104216040518060400160405280601e81526020017f547279696e6720746f2073656e6420257320746f6b656e7320746f202573000081525082846105ef565b80600460003373ffffffffffffffffffffffffffffffffffffffff1673ffffffffffffffffffffffffffffffffffffffff1681526020019081526020016000205410156104a3576040517f08c379a000000000000000000000000000000000000000000000000000000000815260040161049a9061086b565b60405180910390fd5b80600460003373ffffffffffffffffffffffffffffffffffffffff1673ffffffffffffffffffffffffffffffffffffffff16815260200190815260200160002060008282546104f29190610949565b9250508190555080600460008473ffffffffffffffffffffffffffffffffffffffff1673ffffffffffffffffffffffffffffffffffffffff168152602001908152602001600020600082825461054891906108c2565b925050819055505050565b6105eb82826040516024016105699291906107fd565b6040516020818303038152906040527f9710a9d0000000000000000000000000000000000000000000000000000000007bffffffffffffffffffffffffffffffffffffffffffffffffffffffff19166020820180517bffffffffffffffffffffffffffffffffffffffffffffffffffffffff838183161783525050505061068e565b5050565b6106898383836040516024016106079392919061082d565b6040516020818303038152906040527fe3849f79000000000000000000000000000000000000000000000000000000007bffffffffffffffffffffffffffffffffffffffffffffffffffffffff19166020820180517bffffffffffffffffffffffffffffffffffffffffffffffffffffffff838183161783525050505061068e565b505050565b60008151905060006a636f6e736f6c652e6c6f679050602083016000808483855afa5050505050565b6000813590506106c681610ae5565b92915050565b6000813590506106db81610afc565b92915050565b6000602082840312156106f357600080fd5b6000610701848285016106b7565b91505092915050565b6000806040838503121561071d57600080fd5b600061072b858286016106b7565b925050602061073c858286016106cc565b9150509250929050565b61074f8161097d565b82525050565b6000610760826108a6565b61076a81856108b1565b935061077a8185602086016109b9565b61078381610aab565b840191505092915050565b600061079b601a836108b1565b91506107a682610abc565b602082019050919050565b6107ba816109af565b82525050565b60006020820190506107d56000830184610746565b92915050565b600060208201905081810360008301526107f58184610755565b905092915050565b600060408201905081810360008301526108178185610755565b905061082660208301846107b1565b9392505050565b600060608201905081810360008301526108478186610755565b905061085660208301856107b1565b6108636040830184610746565b949350505050565b600060208201905081810360008301526108848161078e565b9050919050565b60006020820190506108a060008301846107b1565b92915050565b600081519050919050565b600082825260208201905092915050565b60006108cd826109af565b91506108d8836109af565b9250827fffffffffffffffffffffffffffffffffffffffffffffffffffffffffffffffff0382111561090d5761090c610a1e565b5b828201905092915050565b6000610923826109af565b915061092e836109af565b92508261093e5761093d610a4d565b5b828204905092915050565b6000610954826109af565b915061095f836109af565b92508282101561097257610971610a1e565b5b828203905092915050565b60006109888261098f565b9050919050565b600073ffffffffffffffffffffffffffffffffffffffff82169050919050565b6000819050919050565b60005b838110156109d75780820151818401526020810190506109bc565b838111156109e6576000848401525b50505050565b60006002820490506001821680610a0457607f821691505b60208210811415610a1857610a17610a7c565b5b50919050565b7f4e487b7100000000000000000000000000000000000000000000000000000000600052601160045260246000fd5b7f4e487b7100000000000000000000000000000000000000000000000000000000600052601260045260246000fd5b7f4e487b7100000000000000000000000000000000000000000000000000000000600052602260045260246000fd5b6000601f19601f8301169050919050565b7f5472616e73666572206c657373207468616e2062616c616e6365000000000000600082015250565b610aee8161097d565b8114610af957600080fd5b50565b610b05816109af565b8114610b1057600080fd5b5056fea264697066735822122017fd604799291398927254d577b75d7246e08cb538646c1a37b5b8e11e96290964736f6c63430008040033",
  "devdoc": {
    "kind": "dev",
    "methods": {},
    "version": 1
  },
  "userdoc": {
    "kind": "user",
    "methods": {},
    "version": 1
  },
  "storageLayout": {
    "storage": [
      {
        "astId": 5,
        "contract": "contracts/token2.sol:Token2",
        "label": "name",
        "offset": 0,
        "slot": "0",
        "type": "t_string_storage"
      },
      {
        "astId": 8,
        "contract": "contracts/token2.sol:Token2",
        "label": "symbol",
        "offset": 0,
        "slot": "1",
        "type": "t_string_storage"
      },
      {
        "astId": 11,
        "contract": "contracts/token2.sol:Token2",
        "label": "totalSupply",
        "offset": 0,
        "slot": "2",
        "type": "t_uint256"
      },
      {
        "astId": 13,
        "contract": "contracts/token2.sol:Token2",
        "label": "owner",
        "offset": 0,
        "slot": "3",
        "type": "t_address"
      },
      {
        "astId": 17,
        "contract": "contracts/token2.sol:Token2",
        "label": "balances",
        "offset": 0,
        "slot": "4",
        "type": "t_mapping(t_address,t_uint256)"
      }
    ],
    "types": {
      "t_address": {
        "encoding": "inplace",
        "label": "address",
        "numberOfBytes": "20"
      },
      "t_mapping(t_address,t_uint256)": {
        "encoding": "mapping",
        "key": "t_address",
        "label": "mapping(address => uint256)",
        "numberOfBytes": "32",
        "value": "t_uint256"
      },
      "t_string_storage": {
        "encoding": "bytes",
        "label": "string",
        "numberOfBytes": "32"
      },
      "t_uint256": {
        "encoding": "inplace",
        "label": "uint256",
        "numberOfBytes": "32"
      }
    }
  }
}