{
  "address": "0x9fE46736679d2D9a65F0992F2272dE9f3c7fa6e0",
  "abi": [
    {
      "inputs": [],
      "stateMutability": "nonpayable",
      "type": "constructor"
    },
    {
      "inputs": [
        {
          "internalType": "address",
          "name": "account",
          "type": "address"
        }
      ],
      "name": "balanceOf",
      "outputs": [
        {
          "internalType": "uint256",
          "name": "",
          "type": "uint256"
        }
      ],
      "stateMutability": "view",
      "type": "function"
    },
    {
      "inputs": [
        {
          "internalType": "address",
          "name": "account",
          "type": "address"
        },
        {
          "internalType": "uint256",
          "name": "amount",
          "type": "uint256"
        }
      ],
      "name": "faucet",
      "outputs": [],
      "stateMutability": "nonpayable",
      "type": "function"
    },
    {
      "inputs": [],
      "name": "name",
      "outputs": [
        {
          "internalType": "string",
          "name": "",
          "type": "string"
        }
      ],
      "stateMutability": "view",
      "type": "function"
    },
    {
      "inputs": [],
      "name": "owner",
      "outputs": [
        {
          "internalType": "address",
          "name": "",
          "type": "address"
        }
      ],
      "stateMutability": "view",
      "type": "function"
    },
    {
      "inputs": [],
      "name": "symbol",
      "outputs": [
        {
          "internalType": "string",
          "name": "",
          "type": "string"
        }
      ],
      "stateMutability": "view",
      "type": "function"
    },
    {
      "inputs": [],
      "name": "totalSupply",
      "outputs": [
        {
          "internalType": "uint256",
          "name": "",
          "type": "uint256"
        }
      ],
      "stateMutability": "view",
      "type": "function"
    },
    {
      "inputs": [
        {
          "internalType": "address",
          "name": "to",
          "type": "address"
        },
        {
          "internalType": "uint256",
          "name": "amount",
          "type": "uint256"
        }
      ],
      "name": "transfer",
      "outputs": [],
      "stateMutability": "nonpayable",
      "type": "function"
    }
  ],
  "transactionHash": "0x33fd6036833ea3fdcb17e0b030827878ff8ae899baaf9266217991883cac756d",
  "args": [],
  "numDeployments": 1,
  "solcInputHash": "e57543cf2a492c6bbcc012356bf3fe1c",
  "bytecode": "0x60806040526040518060400160405280601281526020017f54657374204861726468617420546f6b656e000000000000000000000000000081525060009080519060200190620000519291906200014f565b506040518060400160405280600381526020017f5448540000000000000000000000000000000000000000000000000000000000815250600190805190602001906200009f9291906200014f565b50620f4240600255348015620000b457600080fd5b5060028054620000c59190620001ff565b600460003373ffffffffffffffffffffffffffffffffffffffff1673ffffffffffffffffffffffffffffffffffffffff1681526020019081526020016000208190555033600360006101000a81548173ffffffffffffffffffffffffffffffffffffffff021916908373ffffffffffffffffffffffffffffffffffffffff160217905550620002d5565b8280546200015d9062000241565b90600052602060002090601f016020900481019282620001815760008555620001cd565b82601f106200019c57805160ff1916838001178555620001cd565b82800160010185558215620001cd579182015b82811115620001cc578251825591602001919060010190620001af565b5b509050620001dc9190620001e0565b5090565b5b80821115620001fb576000816000905550600101620001e1565b5090565b60006200020c8262000237565b9150620002198362000237565b9250826200022c576200022b62000277565b5b828204905092915050565b6000819050919050565b600060028204905060018216806200025a57607f821691505b60208210811415620002715762000270620002a6565b5b50919050565b7f4e487b7100000000000000000000000000000000000000000000000000000000600052601260045260246000fd5b7f4e487b7100000000000000000000000000000000000000000000000000000000600052602260045260246000fd5b610b3b80620002e56000396000f3fe608060405234801561001057600080fd5b506004361061007d5760003560e01c80637b56c2b21161005b5780637b56c2b2146100ee5780638da5cb5b1461010a57806395d89b4114610128578063a9059cbb146101465761007d565b806306fdde031461008257806318160ddd146100a057806370a08231146100be575b600080fd5b61008a610162565b60405161009791906107cd565b60405180910390f35b6100a86101f0565b6040516100b5919061087d565b60405180910390f35b6100d860048036038101906100d391906106d3565b6101f6565b6040516100e5919061087d565b60405180910390f35b610108600480360381019061010391906106fc565b61023f565b005b6101126102a1565b60405161011f91906107b2565b60405180910390f35b6101306102c7565b60405161013d91906107cd565b60405180910390f35b610160600480360381019061015b91906106fc565b610355565b005b6000805461016f906109de565b80601f016020809104026020016040519081016040528092919081815260200182805461019b906109de565b80156101e85780601f106101bd576101008083540402835291602001916101e8565b820191906000526020600020905b8154815290600101906020018083116101cb57829003601f168201915b505050505081565b60025481565b6000600460008373ffffffffffffffffffffffffffffffffffffffff1673ffffffffffffffffffffffffffffffffffffffff168152602001908152602001600020549050919050565b6002805461024d919061090a565b81111561025957600080fd5b80600460008473ffffffffffffffffffffffffffffffffffffffff1673ffffffffffffffffffffffffffffffffffffffff168152602001908152602001600020819055505050565b600360009054906101000a900473ffffffffffffffffffffffffffffffffffffffff1681565b600180546102d4906109de565b80601f0160208091040260200160405190810160405280929190818152602001828054610300906109de565b801561034d5780601f106103225761010080835404028352916020019161034d565b820191906000526020600020905b81548152906001019060200180831161033057829003601f168201915b505050505081565b6103d36040518060400160405280601b81526020017f53656e6465722062616c616e636520697320257320746f6b656e730000000000815250600460003373ffffffffffffffffffffffffffffffffffffffff1673ffffffffffffffffffffffffffffffffffffffff16815260200190815260200160002054610545565b6104136040518060400160405280601e81526020017f547279696e6720746f2073656e6420257320746f6b656e7320746f202573000081525082846105e1565b80600460003373ffffffffffffffffffffffffffffffffffffffff1673ffffffffffffffffffffffffffffffffffffffff168152602001908152602001600020541015610495576040517f08c379a000000000000000000000000000000000000000000000000000000000815260040161048c9061085d565b60405180910390fd5b80600460003373ffffffffffffffffffffffffffffffffffffffff1673ffffffffffffffffffffffffffffffffffffffff16815260200190815260200160002060008282546104e4919061093b565b9250508190555080600460008473ffffffffffffffffffffffffffffffffffffffff1673ffffffffffffffffffffffffffffffffffffffff168152602001908152602001600020600082825461053a91906108b4565b925050819055505050565b6105dd828260405160240161055b9291906107ef565b6040516020818303038152906040527f9710a9d0000000000000000000000000000000000000000000000000000000007bffffffffffffffffffffffffffffffffffffffffffffffffffffffff19166020820180517bffffffffffffffffffffffffffffffffffffffffffffffffffffffff8381831617835250505050610680565b5050565b61067b8383836040516024016105f99392919061081f565b6040516020818303038152906040527fe3849f79000000000000000000000000000000000000000000000000000000007bffffffffffffffffffffffffffffffffffffffffffffffffffffffff19166020820180517bffffffffffffffffffffffffffffffffffffffffffffffffffffffff8381831617835250505050610680565b505050565b60008151905060006a636f6e736f6c652e6c6f679050602083016000808483855afa5050505050565b6000813590506106b881610ad7565b92915050565b6000813590506106cd81610aee565b92915050565b6000602082840312156106e557600080fd5b60006106f3848285016106a9565b91505092915050565b6000806040838503121561070f57600080fd5b600061071d858286016106a9565b925050602061072e858286016106be565b9150509250929050565b6107418161096f565b82525050565b600061075282610898565b61075c81856108a3565b935061076c8185602086016109ab565b61077581610a9d565b840191505092915050565b600061078d601a836108a3565b915061079882610aae565b602082019050919050565b6107ac816109a1565b82525050565b60006020820190506107c76000830184610738565b92915050565b600060208201905081810360008301526107e78184610747565b905092915050565b600060408201905081810360008301526108098185610747565b905061081860208301846107a3565b9392505050565b600060608201905081810360008301526108398186610747565b905061084860208301856107a3565b6108556040830184610738565b949350505050565b6000602082019050818103600083015261087681610780565b9050919050565b600060208201905061089260008301846107a3565b92915050565b600081519050919050565b600082825260208201905092915050565b60006108bf826109a1565b91506108ca836109a1565b9250827fffffffffffffffffffffffffffffffffffffffffffffffffffffffffffffffff038211156108ff576108fe610a10565b5b828201905092915050565b6000610915826109a1565b9150610920836109a1565b9250826109305761092f610a3f565b5b828204905092915050565b6000610946826109a1565b9150610951836109a1565b92508282101561096457610963610a10565b5b828203905092915050565b600061097a82610981565b9050919050565b600073ffffffffffffffffffffffffffffffffffffffff82169050919050565b6000819050919050565b60005b838110156109c95780820151818401526020810190506109ae565b838111156109d8576000848401525b50505050565b600060028204905060018216806109f657607f821691505b60208210811415610a0a57610a09610a6e565b5b50919050565b7f4e487b7100000000000000000000000000000000000000000000000000000000600052601160045260246000fd5b7f4e487b7100000000000000000000000000000000000000000000000000000000600052601260045260246000fd5b7f4e487b7100000000000000000000000000000000000000000000000000000000600052602260045260246000fd5b6000601f19601f8301169050919050565b7f5472616e73666572206c657373207468616e2062616c616e6365000000000000600082015250565b610ae08161096f565b8114610aeb57600080fd5b50565b610af7816109a1565b8114610b0257600080fd5b5056fea2646970667358221220b4ffa92116c58ea6c3a8d025eb7ac4aae87193608872e5ea4b467ce9d6b28f7764736f6c63430008040033",
  "devdoc": {
    "kind": "dev",
    "methods": {},
    "version": 1
  },
  "userdoc": {
    "kind": "user",
    "methods": {},
    "version": 1
  },
  "storageLayout": {
    "storage": [
      {
        "astId": 54,
        "contract": "contracts/token.sol:Token",
        "label": "name",
        "offset": 0,
        "slot": "0",
        "type": "t_string_storage"
      },
      {
        "astId": 57,
        "contract": "contracts/token.sol:Token",
        "label": "symbol",
        "offset": 0,
        "slot": "1",
        "type": "t_string_storage"
      },
      {
        "astId": 60,
        "contract": "contracts/token.sol:Token",
        "label": "totalSupply",
        "offset": 0,
        "slot": "2",
        "type": "t_uint256"
      },
      {
        "astId": 62,
        "contract": "contracts/token.sol:Token",
        "label": "owner",
        "offset": 0,
        "slot": "3",
        "type": "t_address"
      },
      {
        "astId": 66,
        "contract": "contracts/token.sol:Token",
        "label": "balances",
        "offset": 0,
        "slot": "4",
        "type": "t_mapping(t_address,t_uint256)"
      }
    ],
    "types": {
      "t_address": {
        "encoding": "inplace",
        "label": "address",
        "numberOfBytes": "20"
      },
      "t_mapping(t_address,t_uint256)": {
        "encoding": "mapping",
        "key": "t_address",
        "label": "mapping(address => uint256)",
        "numberOfBytes": "32",
        "value": "t_uint256"
      },
      "t_string_storage": {
        "encoding": "bytes",
        "label": "string",
        "numberOfBytes": "32"
      },
      "t_uint256": {
        "encoding": "inplace",
        "label": "uint256",
        "numberOfBytes": "32"
      }
    }
  }
}